{
  "_format": "hh-sol-artifact-1",
  "contractName": "AuctionHouse",
  "sourceName": "contracts/AuctionHouse.sol",
  "abi": [
    {
      "anonymous": false,
      "inputs": [
        {
          "indexed": false,
          "internalType": "uint256",
          "name": "_productId",
          "type": "uint256"
        },
        {
          "indexed": false,
          "internalType": "string",
          "name": "_name",
          "type": "string"
        },
        {
          "indexed": false,
          "internalType": "string",
          "name": "_category",
          "type": "string"
        },
        {
          "indexed": false,
          "internalType": "string",
          "name": "_imageLink",
          "type": "string"
        },
        {
          "indexed": false,
          "internalType": "string",
          "name": "_descLink",
          "type": "string"
        },
        {
          "indexed": false,
          "internalType": "uint256",
          "name": "_auctionStartTime",
          "type": "uint256"
        },
        {
          "indexed": false,
          "internalType": "uint256",
          "name": "_auctionEndTime",
          "type": "uint256"
        },
        {
          "indexed": false,
          "internalType": "uint256",
          "name": "_startPrice",
          "type": "uint256"
        },
        {
          "indexed": false,
          "internalType": "uint256",
          "name": "_productCondition",
          "type": "uint256"
        }
      ],
      "name": "NewProduct",
      "type": "event"
    },
    {
      "inputs": [
        {
          "internalType": "string",
          "name": "_name",
          "type": "string"
        },
        {
          "internalType": "string",
          "name": "_category",
          "type": "string"
        },
        {
          "internalType": "string",
          "name": "_imageLink",
          "type": "string"
        },
        {
          "internalType": "string",
          "name": "_descLink",
          "type": "string"
        },
        {
          "internalType": "uint256",
          "name": "_auctionStartTime",
          "type": "uint256"
        },
        {
          "internalType": "uint256",
          "name": "_auctionEndTime",
          "type": "uint256"
        },
        {
          "internalType": "string",
          "name": "_startPrice",
          "type": "string"
        },
        {
          "internalType": "uint256",
          "name": "_productCondition",
          "type": "uint256"
        }
      ],
      "name": "addProductToStore",
      "outputs": [],
      "stateMutability": "nonpayable",
      "type": "function"
    },
    {
      "inputs": [
        {
          "internalType": "uint256",
          "name": "_productId",
          "type": "uint256"
        },
        {
          "internalType": "bytes32",
          "name": "_bid",
          "type": "bytes32"
        }
      ],
      "name": "bid",
      "outputs": [
        {
          "internalType": "bool",
          "name": "",
          "type": "bool"
        }
      ],
      "stateMutability": "payable",
      "type": "function"
    },
    {
      "inputs": [
        {
          "internalType": "uint256",
          "name": "_productId",
          "type": "uint256"
        }
      ],
      "name": "escrowAddressForProduct",
      "outputs": [
        {
          "internalType": "address",
          "name": "",
          "type": "address"
        }
      ],
      "stateMutability": "view",
      "type": "function"
    },
    {
      "inputs": [
        {
          "internalType": "uint256",
          "name": "_productId",
          "type": "uint256"
        }
      ],
      "name": "escrowInfo",
      "outputs": [
        {
          "internalType": "address",
          "name": "",
          "type": "address"
        },
        {
          "internalType": "address",
          "name": "",
          "type": "address"
        },
        {
          "internalType": "address",
          "name": "",
          "type": "address"
        },
        {
          "internalType": "bool",
          "name": "",
          "type": "bool"
        },
        {
          "internalType": "uint256",
          "name": "",
          "type": "uint256"
        },
        {
          "internalType": "uint256",
          "name": "",
          "type": "uint256"
        }
      ],
      "stateMutability": "view",
      "type": "function"
    },
    {
      "inputs": [
        {
          "internalType": "uint256",
          "name": "_productId",
          "type": "uint256"
        }
      ],
      "name": "finalizeAuction",
      "outputs": [],
      "stateMutability": "nonpayable",
      "type": "function"
    },
    {
      "inputs": [
        {
          "internalType": "uint256",
          "name": "_productId",
          "type": "uint256"
        }
      ],
      "name": "getProduct",
      "outputs": [
        {
          "internalType": "uint256",
          "name": "",
          "type": "uint256"
        },
        {
          "internalType": "string",
          "name": "",
          "type": "string"
        },
        {
          "internalType": "string",
          "name": "",
          "type": "string"
        },
        {
          "internalType": "string",
          "name": "",
          "type": "string"
        },
        {
          "internalType": "string",
          "name": "",
          "type": "string"
        },
        {
          "internalType": "uint256",
          "name": "",
          "type": "uint256"
        },
        {
          "internalType": "uint256",
          "name": "",
          "type": "uint256"
        },
        {
          "internalType": "uint256",
          "name": "",
          "type": "uint256"
        },
        {
          "internalType": "enum AuctionHouse.ProductStatus",
          "name": "",
          "type": "uint8"
        },
        {
          "internalType": "enum AuctionHouse.ProductCondition",
          "name": "",
          "type": "uint8"
        }
      ],
      "stateMutability": "view",
      "type": "function"
    },
    {
      "inputs": [
        {
          "internalType": "uint256",
          "name": "_productId",
          "type": "uint256"
        }
      ],
      "name": "highestBidderInfo",
      "outputs": [
        {
          "internalType": "address",
          "name": "",
          "type": "address"
        },
        {
          "internalType": "uint256",
          "name": "",
          "type": "uint256"
        },
        {
          "internalType": "uint256",
          "name": "",
          "type": "uint256"
        }
      ],
      "stateMutability": "view",
      "type": "function"
    },
    {
      "inputs": [
        {
          "internalType": "string",
          "name": "_amount",
          "type": "string"
        },
        {
          "internalType": "string",
          "name": "_secret",
          "type": "string"
        }
      ],
      "name": "keccak",
      "outputs": [
        {
          "internalType": "bytes32",
          "name": "",
          "type": "bytes32"
        }
      ],
      "stateMutability": "pure",
      "type": "function"
    },
    {
      "inputs": [],
      "name": "productIndex",
      "outputs": [
        {
          "internalType": "uint256",
          "name": "",
          "type": "uint256"
        }
      ],
      "stateMutability": "view",
      "type": "function"
    },
    {
      "inputs": [
        {
          "internalType": "uint256",
          "name": "_productId",
          "type": "uint256"
        }
      ],
      "name": "refundAmountToBuyer",
      "outputs": [],
      "stateMutability": "nonpayable",
      "type": "function"
    },
    {
      "inputs": [
        {
          "internalType": "uint256",
          "name": "_productId",
          "type": "uint256"
        }
      ],
      "name": "releaseAmountToSeller",
      "outputs": [],
      "stateMutability": "nonpayable",
      "type": "function"
    },
    {
      "inputs": [
        {
          "internalType": "uint256",
          "name": "_productId",
          "type": "uint256"
        },
        {
          "internalType": "string",
          "name": "_amount",
          "type": "string"
        },
        {
          "internalType": "string",
          "name": "_secret",
          "type": "string"
        }
      ],
      "name": "revealBid",
      "outputs": [],
      "stateMutability": "nonpayable",
      "type": "function"
    },
    {
      "inputs": [
        {
          "internalType": "uint256",
          "name": "index_",
          "type": "uint256"
        }
      ],
      "name": "store",
      "outputs": [],
      "stateMutability": "nonpayable",
      "type": "function"
    },
    {
      "inputs": [
        {
          "internalType": "uint256",
          "name": "_productId",
          "type": "uint256"
        }
      ],
      "name": "totalBids",
      "outputs": [
        {
          "internalType": "uint256",
          "name": "",
          "type": "uint256"
        }
      ],
      "stateMutability": "view",
      "type": "function"
    }
  ],
  "bytecode": "0x608060405234801561001057600080fd5b50613c57806100206000396000f3fe608060405260043610620000f25760003560e01c8063c897d5a6116200008b578063e80838631162000061578063e80838631462000343578063ea1591bb1462000371578063f0d10d0114620003a7578063f85f196e14620003eb57620000f2565b8063c897d5a6146200029f578063cc352db714620002cf578063ce818ea914620002fd57620000f2565b80636057361d11620000cd5780636057361d14620001ad5780638356052514620001db5780639a3a7c691462000224578063b9db15b4146200025257620000f2565b80630e1c88d414620000f757806328e3d19014620001255780634389754a1462000169575b600080fd5b3480156200010457600080fd5b506200012360048036038101906200011d919062001c64565b62000419565b005b3480156200013257600080fd5b506200015160048036038101906200014b919062001dc8565b6200063d565b60405162000160919062001e0b565b60405180910390f35b3480156200017657600080fd5b506200019560048036038101906200018f919062001dc8565b620006d2565b604051620001a4919062001e6d565b60405180910390f35b348015620001ba57600080fd5b50620001d96004803603810190620001d3919062001dc8565b6200070f565b005b348015620001e857600080fd5b5062000207600480360381019062000201919062001dc8565b62000719565b6040516200021b9695949392919062001ea7565b60405180910390f35b3480156200023157600080fd5b506200025060048036038101906200024a919062001dc8565b620007dc565b005b3480156200025f57600080fd5b506200027e600480360381019062000278919062001dc8565b62000881565b604051620002969a999897969594939291906200206e565b60405180910390f35b348015620002ac57600080fd5b50620002b762000bd1565b604051620002c6919062001e0b565b60405180910390f35b348015620002dc57600080fd5b50620002fb6004803603810190620002f5919062001dc8565b62000bd7565b005b3480156200030a57600080fd5b5062000329600480360381019062000323919062001dc8565b62000c7c565b6040516200033a939291906200213a565b60405180910390f35b3480156200035057600080fd5b506200036f600480360381019062000369919062001dc8565b62000d44565b005b6200038f6004803603810190620003899190620021b2565b6200112c565b6040516200039e9190620021f9565b60405180910390f35b348015620003b457600080fd5b50620003d36004803603810190620003cd919062002216565b620014ac565b604051620003e29190620022ac565b60405180910390f35b348015620003f857600080fd5b50620004176004803603810190620004119190620022c9565b620014e6565b005b8284106200042657600080fd5b60016000808282546200043a919062002392565b925050819055506000600160003373ffffffffffffffffffffffffffffffffffffffff1673ffffffffffffffffffffffffffffffffffffffff1681526020019081526020016000206000805481526020019081526020016000209050600054816000018190555088816001019081620004b4919062002603565b5087816002019081620004c8919062002603565b5086816003019081620004dc919062002603565b5085816004019081620004f0919062002603565b508481600501819055508381600601819055506200050e83620019b8565b8160070181905550600081600c0160006101000a81548160ff0219169083600281111562000541576200054062001f9d565b5b02179055508160018111156200055c576200055b62001f9d565b5b81600c0160016101000a81548160ff0219169083600181111562000585576200058462001f9d565b5b021790555033600260008054815260200190815260200160002060006101000a81548173ffffffffffffffffffffffffffffffffffffffff021916908373ffffffffffffffffffffffffffffffffffffffff1602179055507f7246fb63256d85d227c3255d8d4f49ff574a42ec76096803c81c0d6b58ac5a716000548a8a8a8a8a8a620006128b620019b8565b8a6040516200062a99989796959493929190620026ea565b60405180910390a1505050505050505050565b600080600160006002600086815260200190815260200160002060009054906101000a900473ffffffffffffffffffffffffffffffffffffffff1673ffffffffffffffffffffffffffffffffffffffff1673ffffffffffffffffffffffffffffffffffffffff1681526020019081526020016000206000848152602001908152602001600020905080600b0154915050919050565b60006003600083815260200190815260200160002060009054906101000a900473ffffffffffffffffffffffffffffffffffffffff169050919050565b8060008190555050565b6000806000806000806003600088815260200190815260200160002060009054906101000a900473ffffffffffffffffffffffffffffffffffffffff1673ffffffffffffffffffffffffffffffffffffffff1663f3d259046040518163ffffffff1660e01b815260040160c060405180830381865afa158015620007a1573d6000803e3d6000fd5b505050506040513d601f19601f82011682018060405250810190620007c791906200281e565b95509550955095509550955091939550919395565b6003600082815260200190815260200160002060009054906101000a900473ffffffffffffffffffffffffffffffffffffffff1673ffffffffffffffffffffffffffffffffffffffff166358aad10b336040518263ffffffff1660e01b81526004016200084a919062001e6d565b600060405180830381600087803b1580156200086557600080fd5b505af11580156200087a573d6000803e3d6000fd5b5050505050565b600060608060608060008060008060008060016000600260008f815260200190815260200160002060009054906101000a900473ffffffffffffffffffffffffffffffffffffffff1673ffffffffffffffffffffffffffffffffffffffff1673ffffffffffffffffffffffffffffffffffffffff16815260200190815260200160002060008d8152602001908152602001600020905080600001548160010182600201836003018460040185600501548660060154876007015488600c0160009054906101000a900460ff1689600c0160019054906101000a900460ff168880546200096d90620023fc565b80601f01602080910402602001604051908101604052809291908181526020018280546200099b90620023fc565b8015620009ec5780601f10620009c057610100808354040283529160200191620009ec565b820191906000526020600020905b815481529060010190602001808311620009ce57829003601f168201915b5050505050985087805462000a0190620023fc565b80601f016020809104026020016040519081016040528092919081815260200182805462000a2f90620023fc565b801562000a805780601f1062000a545761010080835404028352916020019162000a80565b820191906000526020600020905b81548152906001019060200180831162000a6257829003601f168201915b5050505050975086805462000a9590620023fc565b80601f016020809104026020016040519081016040528092919081815260200182805462000ac390620023fc565b801562000b145780601f1062000ae85761010080835404028352916020019162000b14565b820191906000526020600020905b81548152906001019060200180831162000af657829003601f168201915b5050505050965085805462000b2990620023fc565b80601f016020809104026020016040519081016040528092919081815260200182805462000b5790620023fc565b801562000ba85780601f1062000b7c5761010080835404028352916020019162000ba8565b820191906000526020600020905b81548152906001019060200180831162000b8a57829003601f168201915b505050505095509a509a509a509a509a509a509a509a509a509a50509193959799509193959799565b60005481565b6003600082815260200190815260200160002060009054906101000a900473ffffffffffffffffffffffffffffffffffffffff1673ffffffffffffffffffffffffffffffffffffffff1663a97d1b10336040518263ffffffff1660e01b815260040162000c45919062001e6d565b600060405180830381600087803b15801562000c6057600080fd5b505af115801562000c75573d6000803e3d6000fd5b5050505050565b600080600080600160006002600088815260200190815260200160002060009054906101000a900473ffffffffffffffffffffffffffffffffffffffff1673ffffffffffffffffffffffffffffffffffffffff1673ffffffffffffffffffffffffffffffffffffffff168152602001908152602001600020600086815260200190815260200160002090508060080160009054906101000a900473ffffffffffffffffffffffffffffffffffffffff16816009015482600a0154935093509350509193909250565b6000600160006002600085815260200190815260200160002060009054906101000a900473ffffffffffffffffffffffffffffffffffffffff1673ffffffffffffffffffffffffffffffffffffffff1673ffffffffffffffffffffffffffffffffffffffff168152602001908152602001600020600083815260200190815260200160002090508060060154421162000ddc57600080fd5b6000600281111562000df35762000df262001f9d565b5b81600c0160009054906101000a900460ff16600281111562000e1a5762000e1962001f9d565b5b1462000e2557600080fd5b3373ffffffffffffffffffffffffffffffffffffffff168160080160009054906101000a900473ffffffffffffffffffffffffffffffffffffffff1673ffffffffffffffffffffffffffffffffffffffff160362000e8257600080fd5b3373ffffffffffffffffffffffffffffffffffffffff166002600084815260200190815260200160002060009054906101000a900473ffffffffffffffffffffffffffffffffffffffff1673ffffffffffffffffffffffffffffffffffffffff160362000eee57600080fd5b600073ffffffffffffffffffffffffffffffffffffffff168160080160009054906101000a900473ffffffffffffffffffffffffffffffffffffffff1673ffffffffffffffffffffffffffffffffffffffff160362000f7d57600281600c0160006101000a81548160ff0219169083600281111562000f725762000f7162001f9d565b5b021790555062001128565b600081600a0154838360080160009054906101000a900473ffffffffffffffffffffffffffffffffffffffff166002600087815260200190815260200160002060009054906101000a900473ffffffffffffffffffffffffffffffffffffffff163360405162000fed9062001aa5565b62000ffc9493929190620028ba565b6040518091039082f09050801580156200101a573d6000803e3d6000fd5b509050806003600085815260200190815260200160002060006101000a81548173ffffffffffffffffffffffffffffffffffffffff021916908373ffffffffffffffffffffffffffffffffffffffff160217905550600182600c0160006101000a81548160ff021916908360028111156200109a576200109962001f9d565b5b0217905550600082600a01548360090154620010b7919062002907565b90508260080160009054906101000a900473ffffffffffffffffffffffffffffffffffffffff1673ffffffffffffffffffffffffffffffffffffffff166108fc829081150290604051600060405180830381858888f1935050505015801562001124573d6000803e3d6000fd5b5050505b5050565b600080600160006002600087815260200190815260200160002060009054906101000a900473ffffffffffffffffffffffffffffffffffffffff1673ffffffffffffffffffffffffffffffffffffffff1673ffffffffffffffffffffffffffffffffffffffff168152602001908152602001600020600085815260200190815260200160002090508060050154421015620011fe576040517f08c379a0000000000000000000000000000000000000000000000000000000008152600401620011f59062002992565b60405180910390fd5b806006015442111562001248576040517f08c379a00000000000000000000000000000000000000000000000000000000081526004016200123f9062002a04565b60405180910390fd5b806007015434101562001292576040517f08c379a0000000000000000000000000000000000000000000000000000000008152600401620012899062002a76565b60405180910390fd5b600073ffffffffffffffffffffffffffffffffffffffff1681600d0160003373ffffffffffffffffffffffffffffffffffffffff1673ffffffffffffffffffffffffffffffffffffffff168152602001908152602001600020600085815260200190815260200160002060000160009054906101000a900473ffffffffffffffffffffffffffffffffffffffff1673ffffffffffffffffffffffffffffffffffffffff161462001379576040517f08c379a0000000000000000000000000000000000000000000000000000000008152600401620013709062002ae8565b60405180910390fd5b60405180608001604052803373ffffffffffffffffffffffffffffffffffffffff1681526020018581526020013481526020016000151581525081600d0160003373ffffffffffffffffffffffffffffffffffffffff1673ffffffffffffffffffffffffffffffffffffffff168152602001908152602001600020600085815260200190815260200160002060008201518160000160006101000a81548173ffffffffffffffffffffffffffffffffffffffff021916908373ffffffffffffffffffffffffffffffffffffffff160217905550602082015181600101556040820151816002015560608201518160030160006101000a81548160ff021916908315150217905550905050600181600b0160008282546200149a919062002392565b92505081905550600191505092915050565b6000808383604051602001620014c492919062002b0a565b6040516020818303038152906040528051906020012090508091505092915050565b6000600160006002600087815260200190815260200160002060009054906101000a900473ffffffffffffffffffffffffffffffffffffffff1673ffffffffffffffffffffffffffffffffffffffff1673ffffffffffffffffffffffffffffffffffffffff16815260200190815260200160002060008581526020019081526020016000209050806005015442116200157e57600080fd5b600083836040516020016200159592919062002b0a565b604051602081830303815290604052805190602001209050600082600d0160003373ffffffffffffffffffffffffffffffffffffffff1673ffffffffffffffffffffffffffffffffffffffff16815260200190815260200160002060008381526020019081526020016000206040518060800160405290816000820160009054906101000a900473ffffffffffffffffffffffffffffffffffffffff1673ffffffffffffffffffffffffffffffffffffffff1673ffffffffffffffffffffffffffffffffffffffff16815260200160018201548152602001600282015481526020016003820160009054906101000a900460ff1615151515815250509050600073ffffffffffffffffffffffffffffffffffffffff16816000015173ffffffffffffffffffffffffffffffffffffffff1611620016d157600080fd5b600015158160600151151514620016e757600080fd5b600080620016f587620019b8565b9050600083604001519050818110156200171257809250620018ec565b600073ffffffffffffffffffffffffffffffffffffffff168660080160009054906101000a900473ffffffffffffffffffffffffffffffffffffffff1673ffffffffffffffffffffffffffffffffffffffff1603620017da57338660080160006101000a81548173ffffffffffffffffffffffffffffffffffffffff021916908373ffffffffffffffffffffffffffffffffffffffff160217905550818660090181905550856007015486600a01819055508181620017d2919062002907565b9250620018eb565b8560090154821115620018c657856009015486600a01819055508560080160009054906101000a900473ffffffffffffffffffffffffffffffffffffffff1673ffffffffffffffffffffffffffffffffffffffff166108fc87600901549081150290604051600060405180830381858888f1935050505015801562001863573d6000803e3d6000fd5b50338660080160006101000a81548173ffffffffffffffffffffffffffffffffffffffff021916908373ffffffffffffffffffffffffffffffffffffffff1602179055508186600901819055508181620018be919062002907565b9250620018ea565b85600a0154821115620018e5578186600a0181905550819250620018e9565b8192505b5b5b5b600186600d0160003373ffffffffffffffffffffffffffffffffffffffff1673ffffffffffffffffffffffffffffffffffffffff168152602001908152602001600020600087815260200190815260200160002060030160006101000a81548160ff0219169083151502179055506000831115620019ad573373ffffffffffffffffffffffffffffffffffffffff166108fc849081150290604051600060405180830381858888f19350505050158015620019ab573d6000803e3d6000fd5b505b505050505050505050565b6000808290506000805b825181101562001a9a576030838281518110620019e457620019e362002b45565b5b602001015160f81c60f81b60f81c60ff161015801562001a2b5750603983828151811062001a175762001a1662002b45565b5b602001015160f81c60f81b60f81c60ff1611155b1562001a8457603083828151811062001a495762001a4862002b45565b5b602001015160f81c60f81b60f81c62001a63919062002b81565b60ff16600a8362001a75919062002bbd565b62001a81919062002392565b91505b808062001a919062002c08565b915050620019c2565b508092505050919050565b610fcc8062002c5683390190565b6000604051905090565b600080fd5b600080fd5b600080fd5b600080fd5b6000601f19601f8301169050919050565b7f4e487b7100000000000000000000000000000000000000000000000000000000600052604160045260246000fd5b62001b1c8262001ad1565b810181811067ffffffffffffffff8211171562001b3e5762001b3d62001ae2565b5b80604052505050565b600062001b5362001ab3565b905062001b61828262001b11565b919050565b600067ffffffffffffffff82111562001b845762001b8362001ae2565b5b62001b8f8262001ad1565b9050602081019050919050565b82818337600083830152505050565b600062001bc262001bbc8462001b66565b62001b47565b90508281526020810184848401111562001be15762001be062001acc565b5b62001bee84828562001b9c565b509392505050565b600082601f83011262001c0e5762001c0d62001ac7565b5b813562001c2084826020860162001bab565b91505092915050565b6000819050919050565b62001c3e8162001c29565b811462001c4a57600080fd5b50565b60008135905062001c5e8162001c33565b92915050565b600080600080600080600080610100898b03121562001c885762001c8762001abd565b5b600089013567ffffffffffffffff81111562001ca95762001ca862001ac2565b5b62001cb78b828c0162001bf6565b985050602089013567ffffffffffffffff81111562001cdb5762001cda62001ac2565b5b62001ce98b828c0162001bf6565b975050604089013567ffffffffffffffff81111562001d0d5762001d0c62001ac2565b5b62001d1b8b828c0162001bf6565b965050606089013567ffffffffffffffff81111562001d3f5762001d3e62001ac2565b5b62001d4d8b828c0162001bf6565b955050608062001d608b828c0162001c4d565b94505060a062001d738b828c0162001c4d565b93505060c089013567ffffffffffffffff81111562001d975762001d9662001ac2565b5b62001da58b828c0162001bf6565b92505060e062001db88b828c0162001c4d565b9150509295985092959890939650565b60006020828403121562001de15762001de062001abd565b5b600062001df18482850162001c4d565b91505092915050565b62001e058162001c29565b82525050565b600060208201905062001e22600083018462001dfa565b92915050565b600073ffffffffffffffffffffffffffffffffffffffff82169050919050565b600062001e558262001e28565b9050919050565b62001e678162001e48565b82525050565b600060208201905062001e84600083018462001e5c565b92915050565b60008115159050919050565b62001ea18162001e8a565b82525050565b600060c08201905062001ebe600083018962001e5c565b62001ecd602083018862001e5c565b62001edc604083018762001e5c565b62001eeb606083018662001e96565b62001efa608083018562001dfa565b62001f0960a083018462001dfa565b979650505050505050565b600081519050919050565b600082825260208201905092915050565b60005b8381101562001f5057808201518184015260208101905062001f33565b60008484015250505050565b600062001f698262001f14565b62001f75818562001f1f565b935062001f8781856020860162001f30565b62001f928162001ad1565b840191505092915050565b7f4e487b7100000000000000000000000000000000000000000000000000000000600052602160045260246000fd5b6003811062001fe05762001fdf62001f9d565b5b50565b600081905062001ff38262001fcc565b919050565b6000620020058262001fe3565b9050919050565b620020178162001ff8565b82525050565b6002811062002031576200203062001f9d565b5b50565b600081905062002044826200201d565b919050565b6000620020568262002034565b9050919050565b620020688162002049565b82525050565b60006101408201905062002086600083018d62001dfa565b81810360208301526200209a818c62001f5c565b90508181036040830152620020b0818b62001f5c565b90508181036060830152620020c6818a62001f5c565b90508181036080830152620020dc818962001f5c565b9050620020ed60a083018862001dfa565b620020fc60c083018762001dfa565b6200210b60e083018662001dfa565b6200211b6101008301856200200c565b6200212b6101208301846200205d565b9b9a5050505050505050505050565b600060608201905062002151600083018662001e5c565b62002160602083018562001dfa565b6200216f604083018462001dfa565b949350505050565b6000819050919050565b6200218c8162002177565b81146200219857600080fd5b50565b600081359050620021ac8162002181565b92915050565b60008060408385031215620021cc57620021cb62001abd565b5b6000620021dc8582860162001c4d565b9250506020620021ef858286016200219b565b9150509250929050565b600060208201905062002210600083018462001e96565b92915050565b6000806040838503121562002230576200222f62001abd565b5b600083013567ffffffffffffffff81111562002251576200225062001ac2565b5b6200225f8582860162001bf6565b925050602083013567ffffffffffffffff81111562002283576200228262001ac2565b5b620022918582860162001bf6565b9150509250929050565b620022a68162002177565b82525050565b6000602082019050620022c360008301846200229b565b92915050565b600080600060608486031215620022e557620022e462001abd565b5b6000620022f58682870162001c4d565b935050602084013567ffffffffffffffff81111562002319576200231862001ac2565b5b620023278682870162001bf6565b925050604084013567ffffffffffffffff8111156200234b576200234a62001ac2565b5b620023598682870162001bf6565b9150509250925092565b7f4e487b7100000000000000000000000000000000000000000000000000000000600052601160045260246000fd5b60006200239f8262001c29565b9150620023ac8362001c29565b9250828201905080821115620023c757620023c662002363565b5b92915050565b7f4e487b7100000000000000000000000000000000000000000000000000000000600052602260045260246000fd5b600060028204905060018216806200241557607f821691505b6020821081036200242b576200242a620023cd565b5b50919050565b60008190508160005260206000209050919050565b60006020601f8301049050919050565b600082821b905092915050565b600060088302620024957fffffffffffffffffffffffffffffffffffffffffffffffffffffffffffffffff8262002456565b620024a1868362002456565b95508019841693508086168417925050509392505050565b6000819050919050565b6000620024e4620024de620024d88462001c29565b620024b9565b62001c29565b9050919050565b6000819050919050565b6200250083620024c3565b620025186200250f82620024eb565b84845462002463565b825550505050565b600090565b6200252f62002520565b6200253c818484620024f5565b505050565b5b8181101562002564576200255860008262002525565b60018101905062002542565b5050565b601f821115620025b3576200257d8162002431565b620025888462002446565b8101602085101562002598578190505b620025b0620025a78562002446565b83018262002541565b50505b505050565b600082821c905092915050565b6000620025d860001984600802620025b8565b1980831691505092915050565b6000620025f38383620025c5565b9150826002028217905092915050565b6200260e8262001f14565b67ffffffffffffffff8111156200262a576200262962001ae2565b5b620026368254620023fc565b6200264382828562002568565b600060209050601f8311600181146200267b576000841562002666578287015190505b620026728582620025e5565b865550620026e2565b601f1984166200268b8662002431565b60005b82811015620026b5578489015182556001820191506020850194506020810190506200268e565b86831015620026d55784890151620026d1601f891682620025c5565b8355505b6001600288020188555050505b505050505050565b60006101208201905062002702600083018c62001dfa565b818103602083015262002716818b62001f5c565b905081810360408301526200272c818a62001f5c565b9050818103606083015262002742818962001f5c565b9050818103608083015262002758818862001f5c565b90506200276960a083018762001dfa565b6200277860c083018662001dfa565b6200278760e083018562001dfa565b6200279761010083018462001dfa565b9a9950505050505050505050565b620027b08162001e48565b8114620027bc57600080fd5b50565b600081519050620027d081620027a5565b92915050565b620027e18162001e8a565b8114620027ed57600080fd5b50565b6000815190506200280181620027d6565b92915050565b600081519050620028188162001c33565b92915050565b60008060008060008060c087890312156200283e576200283d62001abd565b5b60006200284e89828a01620027bf565b96505060206200286189828a01620027bf565b95505060406200287489828a01620027bf565b94505060606200288789828a01620027f0565b93505060806200289a89828a0162002807565b92505060a0620028ad89828a0162002807565b9150509295509295509295565b6000608082019050620028d1600083018762001dfa565b620028e0602083018662001e5c565b620028ef604083018562001e5c565b620028fe606083018462001e5c565b95945050505050565b6000620029148262001c29565b9150620029218362001c29565b92508282039050818111156200293c576200293b62002363565b5b92915050565b7f3e00000000000000000000000000000000000000000000000000000000000000600082015250565b60006200297a60018362001f1f565b9150620029878262002942565b602082019050919050565b60006020820190508181036000830152620029ad816200296b565b9050919050565b7f3c00000000000000000000000000000000000000000000000000000000000000600082015250565b6000620029ec60018362001f1f565b9150620029f982620029b4565b602082019050919050565b6000602082019050818103600083015262002a1f81620029dd565b9050919050565b7f3d00000000000000000000000000000000000000000000000000000000000000600082015250565b600062002a5e60018362001f1f565b915062002a6b8262002a26565b602082019050919050565b6000602082019050818103600083015262002a918162002a4f565b9050919050565b7f3d3d000000000000000000000000000000000000000000000000000000000000600082015250565b600062002ad060028362001f1f565b915062002add8262002a98565b602082019050919050565b6000602082019050818103600083015262002b038162002ac1565b9050919050565b6000604082019050818103600083015262002b26818562001f5c565b9050818103602083015262002b3c818462001f5c565b90509392505050565b7f4e487b7100000000000000000000000000000000000000000000000000000000600052603260045260246000fd5b600060ff82169050919050565b600062002b8e8262002b74565b915062002b9b8362002b74565b9250828203905060ff81111562002bb75762002bb662002363565b5b92915050565b600062002bca8262001c29565b915062002bd78362001c29565b925082820262002be78162001c29565b9150828204841483151762002c015762002c0062002363565b5b5092915050565b600062002c158262001c29565b91507fffffffffffffffffffffffffffffffffffffffffffffffffffffffffffffffff820362002c4a5762002c4962002363565b5b60018201905091905056fe608060405260405162000fcc38038062000fcc833981810160405281019062000029919062000203565b8360008190555082600160006101000a81548173ffffffffffffffffffffffffffffffffffffffff021916908373ffffffffffffffffffffffffffffffffffffffff16021790555081600260006101000a81548173ffffffffffffffffffffffffffffffffffffffff021916908373ffffffffffffffffffffffffffffffffffffffff16021790555080600360006101000a81548173ffffffffffffffffffffffffffffffffffffffff021916908373ffffffffffffffffffffffffffffffffffffffff160217905550346004819055506000600560006101000a81548160ff0219169083151502179055507f7527d0b8d16913563c5afb8fa2dc5b6257355ff7dfbefbdcfc1cf812a0f97c5e848484846040516200014c949392919062000297565b60405180910390a150505050620002e4565b600080fd5b6000819050919050565b620001788162000163565b81146200018457600080fd5b50565b60008151905062000198816200016d565b92915050565b600073ffffffffffffffffffffffffffffffffffffffff82169050919050565b6000620001cb826200019e565b9050919050565b620001dd81620001be565b8114620001e957600080fd5b50565b600081519050620001fd81620001d2565b92915050565b6000806000806080858703121562000220576200021f6200015e565b5b6000620002308782880162000187565b94505060206200024387828801620001ec565b93505060406200025687828801620001ec565b92505060606200026987828801620001ec565b91505092959194509250565b620002808162000163565b82525050565b6200029181620001be565b82525050565b6000608082019050620002ae600083018762000275565b620002bd602083018662000286565b620002cc604083018562000286565b620002db606083018462000286565b95945050505050565b610cd880620002f46000396000f3fe608060405234801561001057600080fd5b50600436106100a95760003560e01c8063aa8c217c11610071578063aa8c217c14610140578063b8d08db21461015e578063c5ce39111461017c578063d1a52e301461019a578063f3d25904146101b8578063fe25e00a146101db576100a9565b806308551a53146100ae5780630bda4dbf146100cc57806358aad10b146100ea5780637150d8ae14610106578063a97d1b1014610124575b600080fd5b6100b66101f9565b6040516100c391906109a3565b60405180910390f35b6100d461021f565b6040516100e191906109d7565b60405180910390f35b61010460048036038101906100ff9190610a23565b610225565b005b61010e61053d565b60405161011b91906109a3565b60405180910390f35b61013e60048036038101906101399190610a23565b610563565b005b61014861087b565b60405161015591906109d7565b60405180910390f35b610166610881565b60405161017391906109d7565b60405180910390f35b610184610887565b60405161019191906109d7565b60405180910390f35b6101a261088d565b6040516101af9190610a6b565b60405180910390f35b6101c06108a0565b6040516101d296959493929190610a86565b60405180910390f35b6101e361093c565b6040516101f091906109a3565b60405180910390f35b600260009054906101000a900473ffffffffffffffffffffffffffffffffffffffff1681565b60095481565b600560009054906101000a900460ff161561023f57600080fd5b600160009054906101000a900473ffffffffffffffffffffffffffffffffffffffff1673ffffffffffffffffffffffffffffffffffffffff168173ffffffffffffffffffffffffffffffffffffffff1614806102e85750600260009054906101000a900473ffffffffffffffffffffffffffffffffffffffff1673ffffffffffffffffffffffffffffffffffffffff168173ffffffffffffffffffffffffffffffffffffffff16145b806103405750600360009054906101000a900473ffffffffffffffffffffffffffffffffffffffff1673ffffffffffffffffffffffffffffffffffffffff168173ffffffffffffffffffffffffffffffffffffffff16145b61034957600080fd5b600660008273ffffffffffffffffffffffffffffffffffffffff1673ffffffffffffffffffffffffffffffffffffffff16815260200190815260200160002060009054906101000a900460ff16610448576001600660008373ffffffffffffffffffffffffffffffffffffffff1673ffffffffffffffffffffffffffffffffffffffff16815260200190815260200160002060006101000a81548160ff0219169083151502179055506001600760008282546104059190610b16565b925050819055507fe31e37941fee7dca6bb1597da71841499d8cd0dfc5553e0889f6d1ca6038ce966000548260405161043f929190610ba7565b60405180910390a15b60026007540361053a57600260009054906101000a900473ffffffffffffffffffffffffffffffffffffffff1673ffffffffffffffffffffffffffffffffffffffff166108fc6004549081150290604051600060405180830381858888f193505050501580156104bc573d6000803e3d6000fd5b506001600560006101000a81548160ff0219169083151502179055507fdde1058856b8611b1f49ef2ebaef10c0441e48e8a6cbbec1ebdcbfb1862b57b4600054600454600260009054906101000a900473ffffffffffffffffffffffffffffffffffffffff1660405161053193929190610be3565b60405180910390a15b50565b600160009054906101000a900473ffffffffffffffffffffffffffffffffffffffff1681565b600560009054906101000a900460ff161561057d57600080fd5b600160009054906101000a900473ffffffffffffffffffffffffffffffffffffffff1673ffffffffffffffffffffffffffffffffffffffff168173ffffffffffffffffffffffffffffffffffffffff1614806106265750600260009054906101000a900473ffffffffffffffffffffffffffffffffffffffff1673ffffffffffffffffffffffffffffffffffffffff168173ffffffffffffffffffffffffffffffffffffffff16145b8061067e5750600360009054906101000a900473ffffffffffffffffffffffffffffffffffffffff1673ffffffffffffffffffffffffffffffffffffffff168173ffffffffffffffffffffffffffffffffffffffff16145b61068757600080fd5b600860008273ffffffffffffffffffffffffffffffffffffffff1673ffffffffffffffffffffffffffffffffffffffff16815260200190815260200160002060009054906101000a900460ff16610786576001600860008373ffffffffffffffffffffffffffffffffffffffff1673ffffffffffffffffffffffffffffffffffffffff16815260200190815260200160002060006101000a81548160ff0219169083151502179055506001600960008282546107439190610b16565b925050819055507fe31e37941fee7dca6bb1597da71841499d8cd0dfc5553e0889f6d1ca6038ce966000548260405161077d929190610c66565b60405180910390a15b60026009540361087857600160009054906101000a900473ffffffffffffffffffffffffffffffffffffffff1673ffffffffffffffffffffffffffffffffffffffff166108fc6004549081150290604051600060405180830381858888f193505050501580156107fa573d6000803e3d6000fd5b506001600560006101000a81548160ff0219169083151502179055507fdde1058856b8611b1f49ef2ebaef10c0441e48e8a6cbbec1ebdcbfb1862b57b4600054600454600160009054906101000a900473ffffffffffffffffffffffffffffffffffffffff1660405161086f93929190610be3565b60405180910390a15b50565b60045481565b60075481565b60005481565b600560009054906101000a900460ff1681565b600080600080600080600160009054906101000a900473ffffffffffffffffffffffffffffffffffffffff16600260009054906101000a900473ffffffffffffffffffffffffffffffffffffffff16600360009054906101000a900473ffffffffffffffffffffffffffffffffffffffff16600560009054906101000a900460ff16600754600954955095509550955095509550909192939495565b600360009054906101000a900473ffffffffffffffffffffffffffffffffffffffff1681565b600073ffffffffffffffffffffffffffffffffffffffff82169050919050565b600061098d82610962565b9050919050565b61099d81610982565b82525050565b60006020820190506109b86000830184610994565b92915050565b6000819050919050565b6109d1816109be565b82525050565b60006020820190506109ec60008301846109c8565b92915050565b600080fd5b610a0081610982565b8114610a0b57600080fd5b50565b600081359050610a1d816109f7565b92915050565b600060208284031215610a3957610a386109f2565b5b6000610a4784828501610a0e565b91505092915050565b60008115159050919050565b610a6581610a50565b82525050565b6000602082019050610a806000830184610a5c565b92915050565b600060c082019050610a9b6000830189610994565b610aa86020830188610994565b610ab56040830187610994565b610ac26060830186610a5c565b610acf60808301856109c8565b610adc60a08301846109c8565b979650505050505050565b7f4e487b7100000000000000000000000000000000000000000000000000000000600052601160045260246000fd5b6000610b21826109be565b9150610b2c836109be565b9250828201905080821115610b4457610b43610ae7565b5b92915050565b600082825260208201905092915050565b7f72656c6561736500000000000000000000000000000000000000000000000000600082015250565b6000610b91600783610b4a565b9150610b9c82610b5b565b602082019050919050565b6000606082019050610bbc60008301856109c8565b8181036020830152610bcd81610b84565b9050610bdc6040830184610994565b9392505050565b6000606082019050610bf860008301866109c8565b610c0560208301856109c8565b610c126040830184610994565b949350505050565b7f726566756e640000000000000000000000000000000000000000000000000000600082015250565b6000610c50600683610b4a565b9150610c5b82610c1a565b602082019050919050565b6000606082019050610c7b60008301856109c8565b8181036020830152610c8c81610c43565b9050610c9b6040830184610994565b939250505056fea2646970667358221220a5760705dc9c35101f1eb5e79efb438ad2fb2d5d9b8f02333820cb38f30639ac64736f6c63430008110033a2646970667358221220dd7e9df4eb978c5107ac77622a492d68fbf5a3f0e1dba53a17dbb5f3c776660164736f6c63430008110033",
  "linkReferences": {},
  "deployedLinkReferences": {}
}